{
  "_format": "hh-sol-artifact-1",
  "contractName": "BuzzMe",
  "sourceName": "contracts/BuzzMe.sol",
  "abi": [
    {
      "anonymous": false,
      "inputs": [
        {
          "indexed": false,
          "internalType": "uint256",
          "name": "buzzAmount",
          "type": "uint256"
        }
      ],
      "name": "buzzBalance",
      "type": "event"
    },
    {
      "inputs": [
        {
          "internalType": "address",
          "name": "_getter",
          "type": "address"
        },
        {
          "internalType": "string",
          "name": "_buzzname",
          "type": "string"
        }
      ],
      "name": "buzzMeEth",
      "outputs": [],
      "stateMutability": "payable",
      "type": "function"
    },
    {
      "inputs": [
        {
          "internalType": "string",
          "name": "_buzzname",
          "type": "string"
        }
      ],
      "name": "createBuzz",
      "outputs": [],
      "stateMutability": "nonpayable",
      "type": "function"
    },
    {
      "inputs": [],
      "name": "getAllBuzzme",
      "outputs": [
        {
          "components": [
            {
              "internalType": "string",
              "name": "buzzName",
              "type": "string"
            },
            {
              "internalType": "address payable",
              "name": "getter",
              "type": "address"
            },
            {
              "internalType": "uint256",
              "name": "amount",
              "type": "uint256"
            }
          ],
          "internalType": "struct BuzzMe.Collector[]",
          "name": "",
          "type": "tuple[]"
        }
      ],
      "stateMutability": "view",
      "type": "function"
    },
    {
      "inputs": [
        {
          "internalType": "address payable",
          "name": "_getter",
          "type": "address"
        },
        {
          "internalType": "string",
          "name": "_buzzname",
          "type": "string"
        }
      ],
      "name": "withdrawBuzz",
      "outputs": [],
      "stateMutability": "payable",
      "type": "function"
    }
  ],
  "bytecode": "0x608060405234801561001057600080fd5b5061111f806100206000396000f3fe60806040526004361061003f5760003560e01c80630e25f85c1461004457806316f2991e14610060578063977a26a71461008b578063c917b66d146100b4575b600080fd5b61005e6004803603810190610059919061099e565b6100d0565b005b34801561006c57600080fd5b50610075610243565b6040516100829190610d24565b60405180910390f35b34801561009757600080fd5b506100b260048036038101906100ad9190610a46565b61053b565b005b6100ce60048036038101906100c991906109f2565b6106e1565b005b600080826040516100e19190610cf6565b908152602001604051809103902060008473ffffffffffffffffffffffffffffffffffffffff1673ffffffffffffffffffffffffffffffffffffffff16815260200190815260200160002060020154905060008111610175576040517f08c379a000000000000000000000000000000000000000000000000000000000815260040161016c90610d66565b60405180910390fd5b4781111561018257600080fd5b8273ffffffffffffffffffffffffffffffffffffffff166108fc829081150290604051600060405180830381858888f193505050501580156101c8573d6000803e3d6000fd5b50806000836040516101da9190610cf6565b908152602001604051809103902060008573ffffffffffffffffffffffffffffffffffffffff1673ffffffffffffffffffffffffffffffffffffffff16815260200190815260200160002060020160008282546102379190610ede565b92505081905550505050565b6060600060018054905067ffffffffffffffff81111561028c577f4e487b7100000000000000000000000000000000000000000000000000000000600052604160045260246000fd5b6040519080825280602002602001820160405280156102c557816020015b6102b2610832565b8152602001906001900390816102aa5790505b50905060005b6001805490508110156105335760008060028381548110610315577f4e487b7100000000000000000000000000000000000000000000000000000000600052603260045260246000fd5b9060005260206000200160405161032c9190610d0d565b9081526020016040518091039020600060018481548110610376577f4e487b7100000000000000000000000000000000000000000000000000000000600052603260045260246000fd5b9060005260206000200160009054906101000a900473ffffffffffffffffffffffffffffffffffffffff1673ffffffffffffffffffffffffffffffffffffffff1673ffffffffffffffffffffffffffffffffffffffff1681526020019081526020016000206040518060600160405290816000820180546103f690610fa2565b80601f016020809104026020016040519081016040528092919081815260200182805461042290610fa2565b801561046f5780601f106104445761010080835404028352916020019161046f565b820191906000526020600020905b81548152906001019060200180831161045257829003601f168201915b505050505081526020016001820160009054906101000a900473ffffffffffffffffffffffffffffffffffffffff1673ffffffffffffffffffffffffffffffffffffffff1673ffffffffffffffffffffffffffffffffffffffff168152602001600282015481525050905080838381518110610514577f4e487b7100000000000000000000000000000000000000000000000000000000600052603260045260246000fd5b602002602001018190525050808061052b90610fd4565b9150506102cb565b508091505090565b600060405180606001604052808381526020013373ffffffffffffffffffffffffffffffffffffffff16815260200160008152509050806000836040516105829190610cf6565b908152602001604051809103902060003373ffffffffffffffffffffffffffffffffffffffff1673ffffffffffffffffffffffffffffffffffffffff16815260200190815260200160002060008201518160000190805190602001906105e9929190610869565b5060208201518160010160006101000a81548173ffffffffffffffffffffffffffffffffffffffff021916908373ffffffffffffffffffffffffffffffffffffffff160217905550604082015181600201559050506001339080600181540180825580915050600190039060005260206000200160009091909190916101000a81548173ffffffffffffffffffffffffffffffffffffffff021916908373ffffffffffffffffffffffffffffffffffffffff1602179055506002829080600181540180825580915050600190039060005260206000200160009091909190915090805190602001906106dc929190610869565b505050565b60003411610724576040517f08c379a000000000000000000000000000000000000000000000000000000000815260040161071b90610d46565b60405180910390fd5b346000826040516107359190610cf6565b908152602001604051809103902060008473ffffffffffffffffffffffffffffffffffffffff1673ffffffffffffffffffffffffffffffffffffffff16815260200190815260200160002060020160008282546107929190610e88565b925050819055507f0f36ae55590b576ea772fb4c408ec1618f54cec4937102bc900230a1dbfa0ce86000826040516107ca9190610cf6565b908152602001604051809103902060008473ffffffffffffffffffffffffffffffffffffffff1673ffffffffffffffffffffffffffffffffffffffff168152602001908152602001600020600201546040516108269190610d86565b60405180910390a15050565b604051806060016040528060608152602001600073ffffffffffffffffffffffffffffffffffffffff168152602001600081525090565b82805461087590610fa2565b90600052602060002090601f01602090048101928261089757600085556108de565b82601f106108b057805160ff19168380011785556108de565b828001600101855582156108de579182015b828111156108dd5782518255916020019190600101906108c2565b5b5090506108eb91906108ef565b5090565b5b808211156109085760008160009055506001016108f0565b5090565b600061091f61091a84610dd2565b610da1565b90508281526020810184848401111561093757600080fd5b610942848285610f60565b509392505050565b600081359050610959816110bb565b92915050565b60008135905061096e816110d2565b92915050565b600082601f83011261098557600080fd5b813561099584826020860161090c565b91505092915050565b600080604083850312156109b157600080fd5b60006109bf8582860161095f565b925050602083013567ffffffffffffffff8111156109dc57600080fd5b6109e885828601610974565b9150509250929050565b60008060408385031215610a0557600080fd5b6000610a138582860161094a565b925050602083013567ffffffffffffffff811115610a3057600080fd5b610a3c85828601610974565b9150509250929050565b600060208284031215610a5857600080fd5b600082013567ffffffffffffffff811115610a7257600080fd5b610a7e84828501610974565b91505092915050565b6000610a938383610c88565b905092915050565b610aa481610f24565b82525050565b6000610ab582610e27565b610abf8185610e4a565b935083602082028501610ad185610e02565b8060005b85811015610b0d5784840389528151610aee8582610a87565b9450610af983610e3d565b925060208a01995050600181019050610ad5565b50829750879550505050505092915050565b6000610b2a82610e32565b610b348185610e5b565b9350610b44818560208601610f6f565b610b4d816110aa565b840191505092915050565b6000610b6382610e32565b610b6d8185610e7d565b9350610b7d818560208601610f6f565b80840191505092915050565b60008154610b9681610fa2565b610ba08186610e7d565b94506001821660008114610bbb5760018114610bcc57610bff565b60ff19831686528186019350610bff565b610bd585610e12565b60005b83811015610bf757815481890152600182019150602081019050610bd8565b838801955050505b50505092915050565b6000610c15601183610e6c565b91507f63616e27742073656e64203020657468210000000000000000000000000000006000830152602082019050919050565b6000610c55601583610e6c565b91507f796f752068617665206e6f2062757a7a207965742100000000000000000000006000830152602082019050919050565b60006060830160008301518482036000860152610ca58282610b1f565b9150506020830151610cba6020860182610a9b565b506040830151610ccd6040860182610cd8565b508091505092915050565b610ce181610f56565b82525050565b610cf081610f56565b82525050565b6000610d028284610b58565b915081905092915050565b6000610d198284610b89565b915081905092915050565b60006020820190508181036000830152610d3e8184610aaa565b905092915050565b60006020820190508181036000830152610d5f81610c08565b9050919050565b60006020820190508181036000830152610d7f81610c48565b9050919050565b6000602082019050610d9b6000830184610ce7565b92915050565b6000604051905081810181811067ffffffffffffffff82111715610dc857610dc761107b565b5b8060405250919050565b600067ffffffffffffffff821115610ded57610dec61107b565b5b601f19601f8301169050602081019050919050565b6000819050602082019050919050565b60008190508160005260206000209050919050565b600081519050919050565b600081519050919050565b6000602082019050919050565b600082825260208201905092915050565b600082825260208201905092915050565b600082825260208201905092915050565b600081905092915050565b6000610e9382610f56565b9150610e9e83610f56565b9250827fffffffffffffffffffffffffffffffffffffffffffffffffffffffffffffffff03821115610ed357610ed261101d565b5b828201905092915050565b6000610ee982610f56565b9150610ef483610f56565b925082821015610f0757610f0661101d565b5b828203905092915050565b6000610f1d82610f36565b9050919050565b6000610f2f82610f36565b9050919050565b600073ffffffffffffffffffffffffffffffffffffffff82169050919050565b6000819050919050565b82818337600083830152505050565b60005b83811015610f8d578082015181840152602081019050610f72565b83811115610f9c576000848401525b50505050565b60006002820490506001821680610fba57607f821691505b60208210811415610fce57610fcd61104c565b5b50919050565b6000610fdf82610f56565b91507fffffffffffffffffffffffffffffffffffffffffffffffffffffffffffffffff8214156110125761101161101d565b5b600182019050919050565b7f4e487b7100000000000000000000000000000000000000000000000000000000600052601160045260246000fd5b7f4e487b7100000000000000000000000000000000000000000000000000000000600052602260045260246000fd5b7f4e487b7100000000000000000000000000000000000000000000000000000000600052604160045260246000fd5b6000601f19601f8301169050919050565b6110c481610f12565b81146110cf57600080fd5b50565b6110db81610f24565b81146110e657600080fd5b5056fea26469706673582212203bb75ba52159a31948d19a9b5f55c7d671d843047823e61f4f8612d4a166484464736f6c63430008000033",
  "linkReferences": {},
  "deployedLinkReferences": {}
}